:020000040800F2
:10000000A806002089010008DF0F0008510F000832
:10001000DD0F000865030008631000080000000001
:10002000000000000000000000000000E30F0008D6
:100030006703000800000000E10F0008E50F00085A
:10004000A3010008A3010008A3010008A301000800
:10005000A3010008A3010008A3010008A3010008F0
:10006000A3010008A3010008A3010008A3010008E0
:10007000A3010008A3010008A3010008A3010008D0
:10008000A3010008A3010008A3010008A3010008C0
:10009000A3010008A3010008A3010008A3010008B0
:1000A000A3010008A3010008A3010008A3010008A0
:1000B000A3010008A3010008A3010008A301000890
:1000C000A3010008A3010008A3010008A301000880
:1000D000A3010008A3010008A3010008A301000870
:1000E000A3010008A3010008A301000800F002F822
:1000F00000F03AF80AA090E8000C82448344AAF188
:100100000107DA4501D100F02FF8AFF2090EBAE885
:100110000F0013F0010F18BFFB1A43F0010318473B
:100120006C1300008C130000103A24BF78C878C10B
:10013000FAD8520724BF30C830C144BF04680C60ED
:10014000704700000023002400250026103A28BF35
:1001500078C1FBD8520728BF30C148BF0B60704739
:100160001FB51FBD10B510BD00F058F81146FFF7C0
:10017000F7FF00F087FF00F076F803B4FFF7F2FF17
:1001800003BC00F07DF8000009488047094800479B
:10019000FEE7FEE7FEE7FEE7FEE7FEE7FEE7FEE737
:1001A000FEE7FEE704480549054A064B7047000094
:1001B00061100008ED000008A8000020A80600203B
:1001C000A8020020A80200204FF0000200B513464C
:1001D00094469646203922BFA0E80C50A0E80C5067
:1001E000B1F12001BFF4F7AF090728BFA0E80C5018
:1001F00048BF0CC05DF804EB890028BF40F8042B11
:1002000008BF704748BF20F8022B11F0804F18BF7D
:1002100000F8012B7047704770477047754600F033
:100220002BF8AE4605006946534620F00700854688
:1002300018B020B5FFF7B6FFBDE820404FF000062C
:100240004FF000074FF000084FF0000B21F00701BE
:10025000AC46ACE8C009ACE8C009ACE8C009ACE801
:10026000C0098D46704710B50446AFF300802046A4
:10027000BDE81040FFF781BF0048704748000020EC
:1002800001491820ABBEFEE72600020070470000BF
:1002900070B5044600688168C943C90717D18168F1
:1002A00021F00101816000F0EDFA05460AE000BF8F
:1002B00000F0E8FA401B022804D920688068C04397
:1002C000C00706D020688068C043C007F0D0002077
:1002D00070BDA06A40F01000A062E06A40F001002A
:1002E000E062012070BD0000F8B5002604460096CB
:1002F00000688168C943C9072DD0816841F00101B8
:100300008160164816490068B0FBF1F000E0401E1D
:1003100000900028FBD100F0B5FA054616E000BFBA
:1003200000F0B0FA401B022810D920688068C04352
:10033000C0070BD0A06A40F01000A062E06A40F055
:100340000100E06284F824600120F8BD2068806824
:10035000C043C007E4D10020F8BD00001400002015
:1003600040420F00FEE7704772B6FEE7F8B5002482
:10037000009490F824202546012A12D0012280F80A
:1003800024204A681F23072A0DD20668776B521E65
:1003900002EB820293409F430B6893401F437763B5
:1003A00019E00220F8BD06680D2A0AD2376BD21F69
:1003B00002EB820293409F430B6893401F433763D5
:1003C00009E0F76A0D3A02EB820293409F430B6803
:1003D00093401F43F7620A68072306680A2A0AD374
:1003E000F7680A3A02EB420293409F438B689340BE
:1003F0001F43F76008E0376902EB420293409F43D6
:100400008B6893401F4337610A68102A01D0112A74
:1004100020D1124B02689A4217D193681B0219D45B
:10042000936843F4000393600968102912D10C49C2
:100430000C4A0968B1FBF2F101EB8101490000E0CF
:10044000491E00910029FBD104E0816A41F020019E
:100450008162012480F824502046F8BD0024014028
:100460001400002040420F000068C06C704700007C
:100470002DE9F0414FF0000704003D467ED0A06A10
:10048000002628B9E66284F82460204600F07EF851
:100490002046FFF7FDFEA16AC90600D420B1A06A7C
:1004A00040F01000A06269E0A16A21F4885141F097
:1004B0000201A1626268E169237B0A4347EA4301C2
:1004C0000A43A1684FF48077B94209D0012907D0C7
:1004D0005FF0000194F814C0BCF1010F02D00AE0F3
:1004E0003946F7E7F3B1A36A43F02003A362E36A56
:1004F00043F00103E3622368D3F804C02CF4694C91
:100500004CEA010CC3F804C021688B68DFF870C0A6
:1005100003EA0C0313438B60A168B9420BD0012995
:1005200009D00CE0DFF85CC0A3690CEB43330B434C
:1005300043F40061DFE7218A0D05A5F580152168E8
:10054000CB6A23F470032B43CB62216889680E4B7E
:100550001940914208D1E662A16A21F0020141F0FE
:100560000101A162BDE8F081A06A20F0020040F024
:100570001000A062E06A40F00100E0620120F1E7B3
:10058000FDF7E1FF00E0FFFFFE0E1FFF00B585B0A5
:100590000021009101910291039100680E49884267
:1005A00018D10E48816941F400718161816901F4BB
:1005B00000710491816941F004018161806969469B
:1005C00000F00400049001200090032001900448F2
:1005D00000F068F805B000BD0024014000100240A2
:1005E0000008014070B5044690F8240001280DD0A1
:1005F000012084F824002046FFF776FE02004FF029
:10060000000005D084F82400104670BD022070BDA3
:10061000A16A40F20123994341F48071A1621F4D08
:1006200023681F49AB4218D10E6816F4702F14D0FE
:10063000A66A46F48016A6620E68760505D5A66AF7
:1006400026F4005646F48056A662A66AF6040AD539
:10065000E66A26F00606E66206E0A66A26F480163A
:10066000A6625E68E9E7E06284F824006FF00200A9
:10067000186020688368C3F34243072B05D1A84262
:1006800008D1096811F4702F04D0816841F48011F9
:100690008160B9E7816841F4A001F9E700280140D1
:1006A000042401402DE9F84FDFF8B8910024A9F1A6
:1006B000040B23460F2709F1040AABF1040EC9E02D
:1006C0000125A5402A40AA427DD1674ED1F804C039
:1006D000ACEB0608B44532D014DCBCF1030F3AD0C1
:1006E00009DCBCF1000F2AD0BCF1010F1CD0BCF119
:1006F000020F31D11DE0BCF1110F17D0BCF1120F68
:100700002AD119E0B8F5881F19D006DCB8F5803F6A
:1007100015D0B8F5801F1FD111E0B8F5001F0ED01D
:10072000B8F5041F18D10AE0CB6815E0CB681B1D93
:1007300012E0CB6808330FE0CB680C330CE08B6819
:100740002BB1012B4FF0080303D0456104E00423D3
:1007500002E0056100E00023FF2A01D8064601E01F
:1007600000F104064FEA840501D9A5F12005D6F869
:10077000008007FA05FC28EA0C0803FA05F548EAA8
:100780000508C6F800804D68ED0062D5374DAE69AA
:1007900046F00106AE61AD6924F0030605F00105DF
:1007A0000095334D06EB050CDCF80850A607360F14
:1007B00007FA06F825EA0805DFF8B880404503D1B6
:1007C0004FF0000817E044E0DFF8AC80404502D16C
:1007D0004FF001080FE0DFF8A480404502D14FF050
:1007E000020808E0DFF89880404502D14FF0030886
:1007F00001E04FF0040808FA06F848EA0508CCF8CA
:1008000008804D68D9F80060ED024D4601D51643C9
:1008100000E096432E604D68DAF80060AD02554660
:1008200001D5164300E096432E604D68DBF800606A
:10083000AD035D4601D5164300E096432E604D683A
:10084000DEF80060ED03754601D5164300E09643DF
:100850002E60641C0D682A46E5407FF431AFBDE888
:10086000F88F000008040140000011100010024041
:100870000000014000080140000C01400010014050
:100880000014014001488068704700000800002003
:100890000248816802781144816070470800002096
:1008A000074810B5016841F010010160032000F015
:1008B00067F80F2000F006F800F024F8002010BDC3
:1008C0000020024070B50D4D04464FF47A7128782F
:1008D000B1FBF0F00A490968B1FBF0F000F024FB2D
:1008E00048B9102C07D200222146501E00F028F8EB
:1008F00000206C6070BD012070BD00000800002069
:10090000140000200C4808B5816941F001018161A3
:10091000816901F001010091C16941F08051C1611B
:10092000C06900F0805000900448416821F0E06107
:1009300041F00071416008BD00100240000001401C
:10094000F0B40E4B1B680C46C3F30223C3F107053A
:10095000042D00D90425191D072901D2002300E028
:10096000DB1E012606FA05F1491E214099409E40F2
:10097000761E16403143F0BC00F074BB0CED00E075
:10098000064900F0070208684FF6FF03184040EAE6
:100990000220034A10430860704700000CED00E09D
:1009A0000000FA052DE9F84305460078354CC007EC
:1009B00054D0E0690026C00008D4E06940F08050BF
:1009C000E061E069012600F0805000902E48016847
:1009D000C90512D40168804641F480710160FFF7B7
:1009E00051FF074605E000BFFFF74CFFC01B64281E
:1009F00023D8D8F80000C005F6D5206A10F440705E
:100A000021D0A98801F4407181421CD0206A1F497D
:100A1000012220F440700A6000220A602062C007B0
:100A200011D0FFF72FFF074641F2883808E000BFDA
:100A3000FFF728FFC11B414502D90320BDE8F88319
:100A4000206A8007F4D5206A696820F44070084362
:100A500020621EB1E06920F08050E06128788007B4
:100A600005D56068A96820F4404008436060287894
:100A7000C00605D56068E96820F48000084360601E
:100A80000020DBE7001002400070004040044242BA
:100A90002DE9F0470F46050061D0434E306800F065
:100AA0000700B84209D2306820F0070038433060B0
:100AB000306800F00700B84251D128683B4C8107EC
:100AC00012D5400703D5606840F4E0606060287884
:100AD000000703D5606840F4605060606068A968F2
:100AE00020F0F000084360602878C00728D06868CC
:100AF000012810D02168022810D0890700292EDA99
:100B0000616821F0030101436160FFF7BBFE80468D
:100B100041F288390DE021688903EFE78901EDE7AB
:100B2000FFF7B0FEA0EB0801494502D90320BDE85C
:100B3000F0876068696800F00C00B0EB810FEFD1BE
:100B4000306800F00700B8420BD9306820F0070089
:100B500038433060306800F00700B84201D001200F
:100B6000E5E72878400705D56068E96820F4E0608B
:100B7000084360602878000706D56068296920F47A
:100B8000605040EAC100606000F018F86168084AEF
:100B9000C1F30311515CC84006490860064800686B
:100BA000FFF790FE0020C2E7002002400010024044
:100BB0007C140008140000200C0000200E4A51682C
:100BC0000E4801F00C03042B11D0082B0FD10C4858
:100BD000C1F38343C903C05C0AD55168084AC1F315
:100BE0004041921E515C054A5043B0FBF1F0704702
:100BF00004494843704700000010024000127A0088
:100C00006C14000800093D002DE9F84F040070D075
:100C10002078C04DC00749D06868C0F38100012822
:100C200007D06868C0F38100022809D16868C00352
:100C300006D52868800339D560680028E7D035E0FC
:100C40006068B0F5803F0BD010B1B0F5A02F11D087
:100C5000286820F480302860286820F4802002E092
:100C6000286840F480302860606890B1FFF70AFE81
:100C700006460AE0286840F480202860F0E700BFBC
:100C8000FFF700FE801B642873D828688003F7D51F
:100C90000CE0FFF7F7FD064605E000BFFFF7F2FDA9
:100CA000801B6428F0D828688003F7D420789A4EF7
:100CB00080074FF001094FF0000839D5686810F03F
:100CC0000C0F07D06868C0F38100022809D168685A
:100CD000C00306D42868800714D52069012808D1EC
:100CE00010E02069B0B1C6F80090FFF7CBFD0746D1
:100CF00005E00AE1FFF7C6FDC01B0228C4D828683A
:100D00008007F7D52868616920F0F80040EAC10043
:100D100028600DE0C6F80080FFF7B4FD074604E048
:100D2000FFF7B0FDC01B022823D828688007F7D43E
:100D3000207800072CD57948A169D9B1C0F8009076
:100D4000FFF7A0FD074604E0FFF79CFDC01B02284B
:100D50000FD8686A8007F7D571484FF4FA510068D8
:100D6000B0FBF1F0009000BF0098411E0091FAD254
:100D70000EE080E0C0F80080FFF784FD074604E045
:100D8000FFF780FDC01B022875D8686A8007F7D47A
:100D90002078400760D5E8690027C00008D4E869DA
:100DA00040F08050E861E869012700F08050009031
:100DB0005C480168C90513D40168834641F4807119
:100DC0000160FFF75FFD824606E000BFFFF75AFDB6
:100DD000A0EB0A0064284ED8DBF80000C005F5D56A
:100DE000E06801280AD008B1052813D0286A20F04D
:100DF00001002862286A20F0040002E0286A40F01E
:100E000001002862E06841F2883B98B1FFF73AFDA3
:100E100082460BE0286A40F004002862EEE700BF3B
:100E2000FFF730FDA0EB0A0159455AD8286A800720
:100E3000F6D50CE0FFF726FD824605E0FFF722FD20
:100E4000A0EB0A0159454CD8286A8007F6D41FB197
:100E5000E86920F08050E861E06988B36968C1F30F
:100E60008101022944D00228C6F8608004D0FFF72F
:100E700009FD044638E034E0FFF704FD074604E0CE
:100E8000FFF700FDC01B02282BD828688001F7D48B
:100E9000206AB0F5803F05D16868A16820F4003071
:100EA00008436860D4E908010843696821F47411B3
:100EB00008436860C6F86090FFF7E4FC044606E06B
:100EC00025E000BFFFF7DEFC001B022809D82868D8
:100ED0008001F7D51BE000BFFFF7D4FC001B022800
:100EE00002D90320BDE8F88F28688001F4D40EE011
:100EF0000128F7D06868226A00F48031914204D159
:100F0000616A00F47010884201D00120EAE70020F5
:100F1000E8E7000000100240000042428004424224
:100F2000140000200070004010B5401EB0F1807F1A
:100F300001D3012010BD4FF0E02460610F21601744
:100F400000F090F80020A06107202061002010BD73
:100F5000FEE700003EB5002410480094019402947E
:100F60000D498460016004730475012505614FF427
:100F700060214460C161FFF77BFA08B1FFF7F4F923
:100F8000CDE90045694605480294FFF7EFF90028CE
:100F900001D0FFF7E9F93EBD002401401800002010
:100FA0000D4808B5816941F010018161816901F046
:100FB00010010091816941F020018161816901F096
:100FC00020010091816941F004018161806900F094
:100FD0000400009008BD000000100240FEE7FEE79C
:100FE00070477047FFF754BC30B593B0282168466E
:100FF000FFF7EAF814210AA8FFF7E6F80025012018
:101000000F9510951195010412958DE82300049019
:101010004FF4E010CDE90810022407946846FFF76A
:10102000F3FD08B172B6FEE70AA90F2081E831008E
:101030004FF48060CDE90D0502210AA8FFF728FDD5
:1010400008B172B6FEE74FF4004011900F940FA85C
:10105000FFF7A8FC002801D072B6FEE713B030BD40
:101060007047FEE70907090E002804DB00F1E020C5
:1010700080F80014704700F00F0000F1E02080F8C5
:10108000141D7047FFF70CFCFFF7AEFFFFF788FF5A
:10109000FFF760FF0D4C0E4F6FF00B054FF06636FB
:1010A0000C48FFF79FFA0B48FFF7DEF980B220806B
:1010B00000F04CF82A4600F092F932463B4600F028
:1010C00059F800F009F86060EAE70000000000202D
:1010D00066660A401800002021F00042A2F160522A
:1010E000B2F5801F01F0004328BFD2F17F6C0BD90D
:1010F0005FEA001C43EAC20242EB507018BF70471F
:1011000028BF20F001007047B2F5801FBCBF184611
:1011100070474FEA410C1CF5001F02D2084600F050
:1011200027B970B500F0D0F800000089FFF7F6BFCE
:101130004FF00040A0F580007047000002494FF0DA
:10114000000000F01AB900BF0000F87FB0FA80F389
:1011500010FA03F10AD0C3F11D0303F580634FEACF
:1011600041504FEA035202EBD12170474FF000008B
:1011700070470000DFF848C170B51CEA111E1EBFA1
:101180001CEA13159EEA0C0F95EA0C0F00F06F8015
:1011900081EA030423EA4C134EEAD47E21EA4C117F
:1011A00041F4801143F48013AE44A1FB024CA0FB38
:1011B0000365AEF17F7E361955EB0C05A1FB034CA0
:1011C0004CF10003A0FB021C16EB0C06654153F129
:1011D0000003094218BF46F0010613F4007F0BD14B
:1011E0004FEA03314FEA0530340341EA155140EA32
:1011F00016506FF003020AE04FEAC3214FEAC52000
:10120000F40241EA555140EA56506FF0020202EBF7
:101210002E4201EB025585EACE710AD05FEA440CFA
:1012200018BF24F0004450F1000041F1000120EA11
:10123000D47040F2FE7C624500D270BDA84214BF5B
:101240004FF080444FF04044002E08BF0024BEF110
:10125000806FA8BFA1F1C041BDE8704080F28280DC
:101260004FF0000001F1C04101F0004170479EEADB
:101270000C0F0CEA131518BF95EA0C0F06D04FF0AF
:10128000000081EA030E0EF0004170BD00F01CF872
:101290008900013E00F007B800F009B84FEA430C9E
:1012A0005FEA5C5C08D081EA030100F05BB84FEABA
:1012B000410C5FEA5C5CF6D14FF0000001497047D9
:1012C0000000FF070000F87F0EF1020E2EF0030E63
:1012D0005EF8046B364205D4012A43EB030515F58D
:1012E000001F12D8012841EB010C1CF5001F0CD87F
:1012F0000ED14FEAD17C15F5001F0CEB4C0C0CF114
:10130000020C08BF4CEBD37C04E04FF0080C01E06A
:101310004FEAD37C0CEB4C0526FA05F606F00706DF
:10132000B6F1040C06D20EEB860CBDE870404CF012
:10133000010C6047DFE80CF0090B02024FF000419E
:101340004FF00000A1F5002170BD1946104601289C
:1013500051EB010418BFD4F5001484BF002001F044
:10136000004170BD0808A0F500114FEA3101704737
:10137000FF2141EAD050C00570470CF00F03092B44
:1013800008BF082000F059800A2B0BD0082B18BF8B
:10139000704708BF1CF0400F0AD04FF000004FF01C
:1013A000000170471CF0400F18BF4FF0004070471D
:1013B0001CF0100F08D020F0704300F07F4242EA8A
:1013C000D3014FEA4370704700F0604021F07F4244
:1013D00042EA000201F07F4040EA727070474FF02D
:1013E000FF0C4CF4E06C1CEA11531CBF9CEA030C8C
:1013F0009445C2BFDA4201EB02517047002B0DD079
:10140000BCF1000F0FD0002A01F00041A4BF41F051
:10141000E04141F07F614FF00000704701F0004172
:101420004FF00000704750EA01334FF09B0C18BF9B
:101430004CF0806C7FF482AE70471CF4801F11D09A
:101440001CF4E02F03D06FEACC31490070474FF015
:101450004050EFF3008222F0704242EA000282F331
:10146000008870474FF00000704701020203040536
:10147000060708090A0B0C0D0E0F101000000000E3
:10148000000000000102030406070809AC1400086C
:10149000000000201800000028010008C414000803
:1014A0001800002090060000440100080000000021
:1014B000000000000100000010000000000000001B
:0414C0000024F40010
:04000005080000ED02
:00000001FF
