:020000040800F2
:10000000680600208901000841050008390500083C
:100010003D05000843020008250C00080000000010
:100020000000000000000000000000003D09000882
:100030004702000800000000F9080008290A00082B
:10004000A3010008A3010008A3010008A301000800
:10005000A3010008A3010008A3010008A3010008F0
:10006000A3010008A3010008A3010008A3010008E0
:10007000A3010008A3010008A3010008A3010008D0
:10008000A3010008A3010008A3010008A3010008C0
:10009000A3010008A3010008A3010008A3010008B0
:1000A000A3010008A3010008A3010008A3010008A0
:1000B0008D0A0008A3010008A3010008A30100089D
:1000C000A3010008A3010008A3010008A301000880
:1000D000A3010008A3010008A3010008A301000870
:1000E000A3010008A3010008A301000800F002F822
:1000F00000F03AF80AA090E8000C82448344AAF188
:100100000107DA4501D100F02FF8AFF2090EBAE885
:100110000F0013F0010F18BFFB1A43F0010318473B
:100120002C1900004C190000103A24BF78C878C17F
:10013000FAD8520724BF30C830C144BF04680C60ED
:10014000704700000023002400250026103A28BF35
:1001500078C1FBD8520728BF30C148BF0B60704739
:100160001FB51FBD10B510BD00F031F81146FFF7E7
:10017000F7FF00F059FD00F04FF803B4FFF7F2FF6E
:1001800003BC00F057F800000948804709480047C1
:10019000FEE7FEE7FEE7FEE7FEE7FEE7FEE7FEE737
:1001A000FEE7FEE704480549054A064B7047000094
:1001B0002D0A0008ED0000086800002068060020F5
:1001C000680200206802002070477047704775463B
:1001D00000F02CF8AE4605006946534620F00700B3
:1001E000854618B020B5FFF7DDFFBDE820404FF091
:1001F00000064FF000074FF000084FF0000B21F011
:100200000701AC46ACE8C009ACE8C009ACE8C009DD
:10021000ACE8C0098D46704710B50446AFF30080C6
:100220002046BDE81040FFF7A8BF00000048704717
:100230000800002001491820ABBEFEE7260002009E
:10024000704700BFFEE7704700B5034603E04FF478
:100250007A7000F005F8181EA3F10103F7D100BD74
:1002600000EBC001C9004FF0E02251610021916113
:100270000521116100BF4FF0E021096901F48031CF
:100280000029F8D004214FF0E022116170472DE9D8
:10029000F04102460025002600200023002400270C
:1002A00091F803C00CF00F0591F803C00CF0100C8E
:1002B000BCF1000F03D091F802C04CEA050591F89B
:1002C00000C0BCF1000F31D0146800202BE04FF0CB
:1002D000010C0CFA00F3B1F800C00CEA03069E42D0
:1002E00020D183004FF00F0C0CFA03F7BC4305FA42
:1002F00003FC4CEA040491F803C0BCF1280F06D1BA
:100300004FF0010C0CFA00FCC2F814C00AE091F89E
:1003100003C0BCF1480F05D14FF0010C0CFA00FCF2
:10032000C2F810C0401C0828D1D31460B1F800C036
:10033000BCF1FF0F34DD546800202EE000F1080C02
:100340004FF0010808FA0CF3B1F800C00CEA0306FC
:100350009E4221D183004FF00F0C0CFA03F7BC43EF
:1003600005FA03FC4CEA040491F803C0BCF1280F21
:1003700005D100F1080C08FA0CF8C2F8148091F8C5
:1003800003C0BCF1480F07D100F1080C4FF0010881
:1003900008FA0CF8C2F81080401C0828CED354602C
:1003A000BDE8F0810246002093680B400BB10120AC
:1003B00000E00020704741617047016170470AB159
:1003C000016100E0416170472DE9F84F0024A24629
:1003D000A146A34600BF38E04FF400612348FFF771
:1003E000ECFF0F20FFF73CFF4FF400611F48FFF7C1
:1003F000E2FF00BF4FF480611C48FFF7D3FF0028E5
:10040000F8D000F0FFFB00BF4FF480611748FFF702
:10041000C9FF0128F8D000F0EDFB00F0D5FB8246C3
:10042000504600F0C5FE009000F018FE074600227E
:100430000F4B00F067FC054600F032FC8146494650
:10044000584600F037FE8346641C032CC4DB584634
:1004500000F004FE07460022064B00F053FC054660
:1004600000F01EFC81464846BDE8F88F000C0140B4
:1004700000004D400000084000B585B00121082073
:1004800000F04CFA0121084600F038FA10208DF8EF
:100490001300C001ADF8100003208DF8120004A96C
:1004A0002448FFF7F4FE48208DF813004FF48060D5
:1004B000ADF8100003208DF8120004A91D48FFF7C5
:1004C000E6FE4FF0804000F024FB0020ADF80A006B
:1004D000ADF806006320ADF808004720ADF8040031
:1004E00000208DF80C0001A94FF0804000F01AFBAD
:1004F0000121880700F0DEFA01221146900700F082
:10050000FFFA4FF4A06000F055F81C208DF80000B1
:1005100001208DF8030000208DF801008DF8020005
:10052000684600F00FF800214FF0804000F0C8FA54
:1005300005B000BD000C014000BFFEE700BFFEE7B4
:100540007047000070B5002100230F22C47804B367
:10055000154C246804F4E064C4F5E064210AC1F198
:100560000403CA40447804FA03F184781440214318
:1005700009010E4C0678A155047804F01F050124EA
:10058000AC4005786D11AD0005F1E025C5F80041DE
:1005900009E0047804F01F050124AC40044D0678FE
:1005A000761145F8264070BD0CED00E000E400E057
:1005B00080E100E002490143024A116070470000F7
:1005C0000000FA050CED00E070B500240EE00021FB
:1005D000204600F0F0F8002504E0002000F07CF94F
:1005E000681CC5B2802DF8DB601CC4B2082CEEDBA1
:1005F00070BD000008B50121082000F08FF914201B
:100600008DF8030003208DF802004FF48070ADF8E0
:10061000000069460A48FFF73AFE4FF40070ADF853
:10062000000069460648FFF732FE01221102044825
:10063000FFF7C5FE012251020148FFF7C0FE08BDC9
:10064000000C014070B50546002415E080202041D3
:1006500000EA05024FF400710E48FFF7B0FE0122D8
:1006600011020C48FFF7ABFE00224FF480710948DD
:10067000FFF7A5FE601CC4B2082CE7DB01221102C3
:100680000448FFF79CFE00224FF480710148FFF7F9
:1006900096FE70BD000C014010B5012251020A48BF
:1006A000FFF78DFE012211020748FFF788FE0022A6
:1006B0004FF400710448FFF782FE00224FF480716E
:1006C0000148FFF77CFE10BD000C014010B5002270
:1006D0004FF400710648FFF772FE01221102044830
:1006E000FFF76DFE012251020148FFF768FE10BDC1
:1006F000000C014070B5002406E0002500E06D1CF0
:10070000B5F57A7FFBD3641CB4F57A7FF5D3FFF798
:1007100071FFAE2000F0D0F8D52000F0CDF8802099
:1007200000F0CAF8A82000F0C7F83F2000F0C4F895
:10073000D32000F0C1F8002000F0BEF8402000F007
:10074000BBF8A12000F0B8F8C82000F0B5F8DA2016
:1007500000F0B2F8122000F0AFF8812000F0ACF801
:10076000CF2000F0A9F8D92000F0A6F8F12000F081
:10077000A3F8DB2000F0A0F8302000F09DF8A420C2
:1007800000F09AF8A62000F097F88D2000F094F879
:10079000142000F091F8AF2000F08EF8FFF714FF5E
:1007A00070BD10B50246012000E050430B1EA1F1C0
:1007B0000101FAD110BD70B505460C4645F0B000F8
:1007C00000F07AF8102141EA141000F075F804F0F6
:1007D0000F0000F071F870BD2DE9F04105460E469E
:1007E0001746721ED206110E6A1E5206100EFFF731
:1007F000E2FF002409E0A7F12001134A02EB0111F6
:10080000085D00F069F8601CC4B2082CF3DB721EAE
:10081000D206110E6A1E012303EB4202D0B2FFF78B
:10082000CAFF00240BE0A7F12001074A02EB0112E6
:1008300004F10801505C00F04FF8601CC4B2082CB1
:10084000F1DBBDE8F08100005A1400082DE9F04703
:1008500080460E4617461D46002415E0281B411E03
:100860000A20FFF79EFFB7FBF0F00A21B0FBF1F280
:1008700001FB120000F130093019C1B24A4640466E
:10088000FFF7AAFF601CC4B2AC42E7DBBDE8F0870B
:100890002DE9F04107460E461546002407E02A5D83
:1008A0003019C1B23846FFF797FF601CC4B2285D0B
:1008B0000028F4D1BDE8F08110B50446FFF7ECFE46
:1008C0007820FFF7BFFE0020FFF7BCFE2046FFF7B1
:1008D000B9FEFFF7FBFE10BD10B50446FFF7DCFEC6
:1008E0007820FFF7AFFE4020FFF7ACFE2046FFF771
:1008F000A9FEFFF7EBFE10BD7047000029B1064AC4
:10090000D2690243044BDA6104E0034AD2698243AC
:10091000014BDA61704700000010024029B1064A1D
:1009200092690243044B9A6104E0034A926982434C
:10093000014B9A617047000000100240704710B5EB
:1009400000F002F810BD00000CB5002001900090EE
:100950003348006840F480303149086000BF3048B7
:10096000006800F4003000900198401C019000984D
:1009700018B90198B0F5A06FF1D12948006800F4CA
:10098000003010B10120009001E00020009000989C
:10099000012843D12348006840F010002149086035
:1009A0000846006820F0030008600846006840F030
:1009B000020008601A4840681949486008464068C3
:1009C00048600846406840F48060486008464068D7
:1009D00020F47C1048600846406840F4E810486005
:1009E0000846006840F08070086000BF0C4800684E
:1009F00000F000700028F9D00948406820F003009A
:100A0000074948600846406840F00200486000BF5F
:100A10000348406800F00C000828F9D10CBD000024
:100A200000100240002002407047000010B513483B
:100A3000006840F00100114908600846406810490C
:100A400008400E494860084600680E4908400B49B6
:100A500008600846006820F4802008600846406866
:100A600020F4FE0048604FF41F008860FFF767FF26
:100A70004FF000600449086010BD00000010024003
:100A80000000FFF8FFFFF6FE08ED00E010B50121C1
:100A9000880700F024F8012808D105480068401CA8
:100AA000034908600121880700F007F810BD000025
:100AB00004000020CA4302827047CA430282704782
:100AC00021B1028842F00102028004E002884FF660
:100AD000FE731A40028070470146888C704730B51B
:100AE0000246002000230024158A05EA01039589A7
:100AF00005EA010413B10CB1012000E0002030BD73
:100B00001AB183890B43838102E083898B438381FC
:100B1000704701894FF6F872114001817047818456
:100B200070470000002202881D4B98420ED01D4BDA
:100B300098420BD0B0F1804F08D01B4B984205D0A3
:100B40001A4B984202D01A4B984204D14FF68F7339
:100B50001A404B881A43174B984207D0164B9842BD
:100B600004D04FF6FF431A40CB881A4302808B888B
:100B700083850B8803850A4B98420BD0094B98421A
:100B800008D00E4B984205D00D4B984202D00D4B29
:100B9000984201D10B7A03860123838270470000BB
:100BA000002C0140003401400004004000080040D7
:100BB000000C0040001000400014004000400140C4
:100BC000004401400048014010B509480068642114
:100BD00000FB01F40807FFF77FFF044400214FF0FA
:100BE0008040FFF79CFF3220FFF72EFB204610BD10
:100BF0000400002010B500214FF08040FFF760FF97
:100C000010BD000010B500214FF08040FFF787FFB6
:100C100000200349086001218807FFF751FF10BD3C
:100C20000400002000BFFEE7FFF764FDFFF724FC8F
:100C300016A201210846FFF72BFE25E0FFF7C4FBB3
:100C4000154908600846006800F096FA0446022339
:100C5000224608210120FFF7F9FD10490E480068DF
:100C600000F0BAFA054600F087FA0A2190FBF1F28B
:100C700001FB1204012322460B211846FFF7E6FD73
:100C80004FF4FA70FFF7E0FAD8E700004C656E67A2
:100C900074683A30302E30000000002000002041FF
:100CA00021F00042A2F16052B2F5801F01F0004332
:100CB00028BFD2F17F6C0BD95FEA001C43EAC20265
:100CC00042EB507018BF704728BF20F001007047FA
:100CD000B2F5801FBCBF184670474FEA410C1CF5A7
:100CE000001F02D2084600F03EBB70B500F062F96A
:100CF00000000089FFF7F6BF4FF00040A0F580002C
:100D0000704700002DE9C04130B4DFF8A0C23CEAD2
:100D1000111418BF3CEA131400F0EC8081EA0305BB
:100D20001CEA111444EAD57418BF1CEA131500F02C
:100D3000C780A4EB05044FF0004545EAC12145EA10
:100D4000C32341EA505143EA525304F17F7499425C
:100D500004F500344FEAC0204FEAC22208BF904297
:100D600000F09C804FEA13650FF24016765D4FEA63
:100D7000134506FB05F7C7F1807706FB07F74FEA37
:100D8000D737A7FB03687642C8F58038A7FB06CEA5
:100D900038BFA8F1010807FB08E64FF0000EA6FBDC
:100DA000028CE6FB03CEDCF1000CCEF1004E38BF26
:100DB000AEF1010EA6FB0C584FF000074FF00005F6
:100DC000E6FB0E87A1FB08C6A0FB07CE16EB0E06BE
:100DD00045F10005E1FB076515F1E04E7EBFA4F586
:100DE00080345FEA46066D4116F1800745F1000543
:100DF0004FEA17274FEA066647EA0567A6F1DE467F
:100E0000B6F1805F4FEA15251FD9384624F0010C52
:100E100005EBC471BCF1FE6F01EB0C1102D8F0BC04
:100E2000BDE8008124425CBF01F5801E9EEAC47FBC
:100E300002D4F0BCBDE80081244238D4F0BCA1F15A
:100E4000C041BDE8004100F003B94FEAD22242EAB6
:100E500043524FEAD323A7FB02864FEAD02040EA51
:100E6000415007FB03661EEA0E0F4FEAD12105FB36
:100E7000026658BFA6EB0056B6EB00564FEA520E7C
:100E80004EEAC37E18EB0E0E56EB530EBDD518EB93
:100E900002085E417F1C55F10005B6E74FF480154E
:100EA0004FF000074FF000064FF00008ADE7F0BC30
:100EB0004FF0000001F1C04101F00041BDE80081A8
:100EC00011EA0C1F0CEA131500D00CE013EA0C1FFA
:100ED00000F025804FF00000F0BC81EA030101F032
:100EE0000041BDE80081F0BCBDE8004181EA03019A
:100EF00000F0AEB8F0BCBDE8004170B500F05AF8A3
:100F0000097EFC3E00F007B881EA03014FF00000C3
:100F100001F00041704781EA030100F099B8F0BC8C
:100F2000BDE800414FF0000021497047FFFDFBF98B
:100F3000F7F5F4F2F0EEEDEBE9E8E6E4E3E1E0DE0C
:100F4000DDDBDAD8D7D5D4D3D1D0CFCDCCCBCAC87E
:100F5000C7C6C5C4C2C1C0BFBEBDBCBBBAB9B8B7A5
:100F6000B6B5B4B3B2B1B0AFAEADACABAAA9A8A898
:100F7000A7A6A5A4A3A3A2A1A09F9F9E9D9C9C9B66
:100F80009A99999897979695959493939291919011
:100F90008F8F8E8E8D8C8C8B8B8A898988888787A2
:100FA0008685858484838382828181800000FF0717
:100FB0000000F87F0EF1020E2EF0030E5EF8046BB7
:100FC000364205D4012A43EB030515F5001F12D85C
:100FD000012841EB010C1CF5001F0CD80ED14FEA83
:100FE000D17C15F5001F0CEB4C0C0CF1020C08BF6A
:100FF0004CEBD37C04E04FF0080C01E04FEAD37CCB
:101000000CEB4C0526FA05F606F00706B6F1040CC3
:1010100006D20EEB860CBDE870404CF0010C604728
:10102000DFE80CF0090B02024FF000414FF0000026
:10103000A1F5002170BD19461046012851EB0104AD
:1010400018BFD4F5001484BF002001F0004170BD2A
:101050000808A0F500114FEA3101704743004FEA3C
:10106000D30C4FEA3C0C43401FBF40070CF16051CA
:1010700013F0FE4F70471CF0006F03D100200CF0FE
:10108000004170470CF0004343EA507010B540EA4D
:10109000CC0000F022F900BF000000924FEA0001EE
:1010A000FFF7D6BF4FF000414FF00000A1F500213F
:1010B0007047000090EA010F48BF81F0004100F145
:1010C0005E81421A3CBF801A89184FEAD0524FF015
:1010D0007F4C1CEA410FA2EBD15318BF9CEA026F70
:1010E00000F03B804FF0004C4CEA00204CEA01211C
:1010F00021FA03FC10EB0C0C1ED202F1FF325FEA66
:101100001C2040EBC25038BF70471CF07F0F4FEAE5
:10111000400C18BFBCF17F4F38BF7047C3F12003AC
:10112000994008BF20F00100BCF17F4F38BF7047E5
:10113000A0F1C04000F017B94FEA3C00000A40EBB4
:10114000C25028BF1CF0FF0F4FEA400CE6D018BF7A
:10115000BCF17F4F38BF7047EAE79CEA026F05D0C9
:1011600010EA5C0F08BF00F00040704710B500F0B7
:10117000B4F800BF64FBBE3E41000B0ED3F19E02EB
:1011800008D950F400034FEA032323FA02F048BFC2
:101190004042704710B500F0A0F800BF499224808B
:1011A000002070476FF0004282EA20007047000084
:1011B000B0FA80F310FA03F2C3F19D030AD0D90507
:1011C00001EB1220530638BF704700F1010008BF41
:1011D00020F00100704700004FF47F0C1CEAD01291
:1011E0001EBF1CEAD11392EA0C0F93EA0C0F00F019
:1011F000478090EA010F48BF42F480724FF0004CE4
:101200004CEA00204CEA012102EB0302A0FB01138F
:10121000A2F50002002918BF43F001035B0028BFBC
:101220004FEA330342EB22425FEA132C4CEBC250ED
:101230002EBFBCEB436FB2F57C0F70474FEA036CD7
:10124000BCF1004F08BF20F00100B2F57C0F38BFA1
:1012500070470BD582F0FF0212F5803FC8BF704780
:1012600000F1C040D8BF00F00040704700F5000C0E
:101270005FEA4C0C48BF7047B0F1C04000F073B853
:1012800090EA010F0CEAD11348BF42F48072624524
:1012900038BF634504D280EA010000F00040704787
:1012A00010B500F01AF800BF8900013E00F007B841
:1012B00000F009B85FEA410C5FEA1C6C08D080EAD4
:1012C000010000F050B85FEA400C5FEA1C6CF6D1F8
:1012D0004FF00040A0F5800070470EF1020E2EF096
:1012E000030E5EF8044B244204D44FEA4102B2F1EB
:1012F0007F4F11D84FEA4003B3F17F4F0CD80ED186
:101300004FEAD07CB2F17F4F0CEB4C0C0CF1020C8D
:1013100008BF4CEBD17C04E04FF0080C01E04FEA31
:10132000D17C0CEB4C0324FA03F404F00704B4F171
:10133000040C06D20EEB840CBDE810404CF0010CFE
:101340006047DFE80CF0070802024FF00040A0F50C
:10135000800010BD0846420018BFD2F1807288BFDD
:1013600000F0004010BDFF2141EAD050C005704799
:1013700090EA010F48BF81F000413FF5A2AE421A4A
:1013800004D882F00042A0EB020011444FEAD05290
:101390004FF07F4C1CEA410FA2EBD15318BF9CEADF
:1013A000026F4AD04FF0004C4CEA00204CEA012179
:1013B00021FA03FCB0EB0C0C0FD412F0FE0F36D068
:1013C0005FEA4C001DD5001240EBC25038BF704799
:1013D0001CF03F0F18BF70470BE0A2F101025FEA5B
:1013E0001C2040EBC25038BF70471CF07F0F18BF65
:1013F0007047C3F12003994014BF401E20F0010044
:10140000704780084FEA122308BF7047B0FA80FC8B
:10141000A2EB0C02CCF1280C60FA0CF093EA122F2C
:1014200004BF00EBC25070474FEAC3707047130A05
:101430005FEADC1008BF7047F6E79CEA026F04D051
:1014400010EA5C0F08BF0020704710B5FFF745FF9A
:1014500040DFF63E81F000407047000000000000D1
:1014600000000000000000000000000000F8000084
:101470000000000000333000000000100C06100CCB
:101480000600000000000000000040C07840C07866
:101490004000043F04043F040400007088FC08304E
:1014A0000000001820FF211E0000F008F000E018E6
:1014B000000000211C031E211E0000F0088870009F
:1014C00000001E2123241927211010160E000000F1
:1014D00000000000000000000000000000E0180410
:1014E0000200000000071820400000020418E0007D
:1014F00000000040201807000000404080F08040BD
:1015000040000202010F01020200000000F0000092
:1015100000000101011F01010100000000000000A6
:10152000000080B07000000000000000000000001B
:1015300000000001010101010101000000000000A4
:10154000000000303000000000000000000080605B
:101550001804006018060100000000E010080810E0
:10156000E000000F102020100F00001010F8000005
:1015700000000020203F202000000070080808889C
:10158000700000302824222130000030088888486C
:1015900030000018202020110E000000C02010F89C
:1015A000000000070424243F240000F8088888086D
:1015B00008000019212020110E0000E01088881872
:1015C0000000000F112020110E0000380808C83854
:1015D00008000000003F0000000000708808088834
:1015E0007000001C222121221C0000E010080810BD
:1015F000E0000000312222110F00000000C0C000F6
:1016000000000000003030000000000000800000FA
:1016100000000000806000000000000080402010FA
:1016200008000001020408102000404040404040F3
:101630004000040404040404040000081020408056
:10164000000000201008040201000070480808088B
:10165000F0000000003036010000C030C828E8105B
:10166000E0000718272423140B000000C038E00016
:101670000000203C23020227382008F88888887060
:101680000000203F202020110E00C030080808086C
:101690003800071820202010080008F80808081053
:1016A000E000203F202020100F0008F88888E8087C
:1016B0001000203F20202320180008F88888E80820
:1016C0001000203F200003000000C0300808083848
:1016D000000007182020221E020008F80800000859
:1016E000F808203F210101213F20000808F80808E0
:1016F00000000020203F2020000000000808F8081B
:101700000800C08080807F00000008F888C028188A
:101710000800203F20012638200008F808000000BB
:101720000000203F20202020300008F8F800F8F8C2
:101730000800203F003F003F200008F830C00008AC
:10174000F808203F200007183F00E01008080810A4
:10175000E0000F10202020100F0008F808080808EB
:10176000F000203F210101010000E01008080810EE
:10177000E0000F18242438504F0008F88888888823
:101780007000203F2000030C3020007088080808FB
:1017900038000038202121221C00180808F8080809
:1017A00018000000203F2000000008F80800000892
:1017B000F808001F202020201F000878880000C89B
:1017C0003808000007380E010000F80800F800088B
:1017D000F800033C0700073C030008186880806895
:1017E000180820302C03032C30200838C800C838D3
:1017F00008000000203F2000000010080808C8383A
:1018000008002038262120201800000000FE0202D7
:1018100002000000007F40404000000C30C000008B
:101820000000000000010638C00000020202FE00B5
:101830000000004040407F0000000000040202025F
:101840000400000000000000000000000000000094
:101850000000808080808080808000020204000080
:101860000000000000000000000000008080808078
:1018700000000019242222223F2008F80080800066
:101880000000003F112020110E0000000080808029
:101890000000000E11202020110000000080808830
:1018A000F800000E112020103F2000008080808072
:1018B0000000001F222222221300008080F088886E
:1018C00088180020203F20200000000080808080B9
:1018D0008000006B94949493600008F800808080EE
:1018E0000000203F210000203F2000809898000049
:1018F00000000020203F2020000000000080989879
:10190000000000C08080807F000008F80000808018
:101910008000203F24022D302000000808F800003D
:1019200000000020203F20200000808080808080F8
:101930008000203F20003F20003F8080008080808A
:101940000000203F210000203F2000008080808098
:101950000000001F202020201F00808000808000C9
:10196000000080FFA12020110E0000000080808078
:101970008000000E112020A0FF80808080008080E9
:10198000800020203F212000010000008080808016
:1019900080000033242424241900008080E080800B
:1019A00000000000001F2020000080800000008058
:1019B0008000001F202020103F20808080000080B9
:1019C000808000010E3008060100808000800080C9
:1019D00080800F300C030C300F000080800080806E
:1019E00080000020312E0E31200080808000008099
:1019F000808080818E701806010000808080808049
:101A000080000021302C2221300000000000807C6A
:101A1000020200000000003F404000000000FF0004
:101A2000000000000000FF0000000002027C8000B7
:101A300000000040403F00000000000601010202DB
:101A40000404000000000000000000006C1A000800
:101A5000000000200800000028010008741A000897
:101A6000080000206006000044010008000000009B
:041A70000000000072
:04000005080000ED02
:00000001FF
